:020000040800F2
:10000000E06E00205D0300081D580008B14D000897
:1000100019580008990B0008016B00080000000047
:100020000000000000000000000000009D02000829
:100030000D0E000800000000F9020008695A0008CF
:100040007703000875580008770300087703000855
:100050007703000877030008770300087703000898
:100060007703000877030008770300087703000888
:100070008D0C0008770300089D0C0008770300082A
:100080007703000877030008770300087703000868
:100090009D0B00087703000877030008770300082A
:1000A0007703000877030008770300087703000848
:1000B0007703000877030008770300087703000838
:1000C0007703000877030008770300087703000828
:1000D000770300089D68000877030008B5680008EA
:1000E0007703000877030008770300087703000808
:1000F00077030008770300087703000877030008F8
:1001000077030008770300087703000877030008E7
:100110007703000877030008615C00087703000894
:100120007703000877030008AD0C00087703000888
:1001300077030008770300087703000877030008B7
:10014000AD0B000877030008770300087703000869
:1001500077030008BD0C000877030008CD6800088D
:100160007703000877030008770300087703000887
:1001700077030008770300087703000800000000F9
:100180007703000877030008770300087703000867
:100190007703000877030008770300087703000857
:1001A00000000000000000007703000800F002F8E3
:1001B00000F065F80AA090E8000C82448344AAF19C
:1001C0000107DA4501D100F05AF8AFF2090EBAE89A
:1001D0000F0013F0010F18BFFB1A43F0010318477B
:1001E00050E2000070E200000A444FF0000C10F8EA
:1001F000013B13F0070408BF10F8014B1D1108BFA5
:1002000010F8015B641E05D010F8016B641E01F844
:10021000016BF9D113F0080F1EBF10F8014BAD1C94
:100220000C1B09D16D1E58BF01F801CBFAD505E0B2
:1002300014F8016B01F8016B6D1EF9D59142D6D30C
:10024000704700000023002400250026103A28BF34
:1002500078C1FBD8520728BF30C148BF0B60704738
:100260001FB50DF020FE9DE8030000F095FA00F0A8
:10027000C5F91FBD10B5002000F049FA10BD00F00F
:10028000E5FA1146FFF7ECFF0AF00AF900F01DFB52
:1002900003B4FFF7EFFF03BC00F0D2FA2C4B196850
:1002A0000868B0E8F04F80F30988BFF36F8F4FF014
:1002B000000080F3118870470000000008480068C3
:1002C000006880F308884FF0000080F3148862B65D
:1002D00061B6BFF34F8FBFF36F8F00DF00BF00BF6A
:1002E00008ED00E0DFF80C00016841F470010160E6
:1002F000704700BF88ED00E0EFF30980BFF36F8F18
:10030000134B1A681EF0100F08BF20ED108A20E969
:10031000F04F106009B44FF0500080F31188BFF324
:100320004F8FBFF36F8F0BF023FA4FF0000080F375
:10033000118809BC19680868B0E8F04F1EF0100F6A
:1003400008BFB0EC108A80F30988BFF36F8F704745
:1003500018000020EFF3058070470000094880472F
:1003600009480047FEE7FEE7FEE7FEE7FEE7FEE797
:10037000FEE7FEE7FEE7FEE704480549054A064BAF
:1003800070470000515B0008AD010008E0680020E4
:10039000E06E0020E06A0020E06A002053EA020CD0
:1003A00000F069802DE9F04B4FF00006002B1FBFD5
:1003B000B3FA83F503FA05F424FA05F65E4012BF9A
:1003C0001643B2FA82F502FA05F4C5F120051EBF04
:1003D00022FA05FC44EA0C04203556EA044C4FEAA4
:1003E000144418BF641C4FF000084FF000099042FD
:1003F00071EB030C39D3002919BFB1FA81F701FA67
:1004000007F6B0FA80F700FA07F6C7F120071EBF1B
:1004100020FA07FC46EA0C062037B6FBF4FCA7EBF3
:100420000507103F07F01F0BCBF120060CFA0BFB62
:100430002CFA06F644BFB3460026202FA4BF5E4622
:100440004FF0000B5BEA060C08BF4FF0010B19EBF5
:100450000B09ABFB027C48EB0608C01B06FB02CC79
:100460000BFB03CC71EB0C01C1E70B460246414686
:100470004846BDE8F08B13B54FF000004FF0000187
:10048000AFF30080BDE81C4070472DE9F0410746FE
:1004900015460E46102000F0D9F804000AD0676017
:1004A000C4E9026500F0CEF8016821600460002014
:1004B000BDE8F0810120FBE7032A40F2308010F014
:1004C000030C00F0158011F8013BBCF1020F6244EF
:1004D00098BF11F801CB00F8013B38BF11F8013B80
:1004E000A2F1040298BF00F801CB38BF00F8013B2D
:1004F00011F0030300F02580083AC0F0088051F89D
:10050000043B083A51F804CBA0E80810F5E7121DA7
:100510005CBF51F8043B40F8043BAFF30080D207C6
:1005200024BF11F8013B11F801CB48BF11F8012B92
:1005300024BF00F8013B00F801CB48BF00F8012BB5
:10054000704710B5203AC0F00B80B1E81850203A3F
:10055000A0E81850B1E81850A0E81850BFF4F5AF63
:100560005FEA027C24BFB1E81850A0E8185044BFED
:1005700018C918C0BDE810405FEA827C24BF51F85A
:10058000043B40F8043B08BF7047D20728BF31F84E
:10059000023B48BF11F8012B28BF20F8023B48BF9F
:1005A00000F8012B70474FF0000200B51346944647
:1005B0009646203922BFA0E80C50A0E80C50B1F1BB
:1005C0002001BFF4F7AF090728BFA0E80C5048BFCF
:1005D0000CC05DF804EB890028BF40F8042B08BF6D
:1005E000704748BF20F8022B11F0804F18BF00F869
:1005F000012B7047704770477047000070B5064C7C
:100600007C44064D7D4403E0206820448047241D3F
:10061000AC42F9D170BD00004CDE000058DE000095
:100620002DE9F04117460E46054633B107FB03544A
:10063000E41B2046B047A542FAD1A5F10800BDE869
:10064000F081000000487047B868002070B5064689
:1006500000F082F8056806F10B0020F00704B442B0
:100660009CBF002070BD2B466A68BAB11068A042DA
:1006700010D304F1080188423CBF5068586007D38A
:100680005168101941601168091B016058601460BD
:10069000101D70BD13465268002AE7D12146284636
:1006A00000F066F80028DED170BD70B50446051F65
:1006B00000F052F80068002C14BF446870BD002C94
:1006C00018BFAC423CBF20466468F8D301680A18E2
:1006D000AA4218BF456003D12A680546114401604B
:1006E00028684119A1421CBF6C6070BD61686960D7
:1006F00021680844286070BD10B500F031F800682A
:1007000010BD10B5044600F02BF8046010BD2DE9B3
:10071000F0410646FFF796FF8046454613E016B1C6
:10072000E068B0420ED120682860D4E90101D8F811
:10073000007088472046FFF7B8FFD8F80000B8429D
:10074000EBD100E025462C68002CE8D1BDE8F08113
:100750000048704780680020004870478868002083
:1007600000487047806800207047704770477047A6
:1007700038B504460A4600206946AFF300800028D9
:1007800008BF38BD02460099204600F084F80120D9
:1007900038BD012000F0C2B8F8B5AFF300800546BF
:1007A00000200C46102000BF0646A819A0420DD913
:1007B000324669460020AFF30080070008BF00F012
:1007C000ADF80098A04218BF0546C419FFF7C4FF52
:1007D00005600746F01D20F007004619284600F086
:1007E0000AF8B44208BFF8BDA21B31463868BDE81C
:1007F000F84000F050B800210160C0E901107047D6
:10080000102070471FB584B000200A9C06AB04AAD4
:1008100002A90094AFF3008018B1DDE9020108B02D
:1008200010BD0348204000F072F800200146F6E7B2
:100830000000207C002801D000F002B870470000C2
:1008400001491820ABBEFEE7260002007546FFF7FF
:100850007FFFAE4605006946534620F007008546F7
:1008600018B020B5FFF788FDBDE820404FF0000626
:100870004FF000074FF000084FF0000B21F0070188
:10088000AC46ACE8C009ACE8C009ACE8C009ACE8CB
:10089000C0098D467047034640688C46002818BF43
:1008A00088423CBF03464068F8D318681844884221
:1008B00007D00CF1030020F00700001D411A521A66
:1008C0000146081D0A60FFF7F0BE10B50446AFF3FD
:1008D00000802046BDE81040FFF7DABC70B5054641
:1008E0000C460A2000E06D1C00F01FF835B1287896
:1008F0000028F8D102E0641C00F017F814B1207849
:100900000028F8D1BDE870400A2000F00EB810B5FC
:1009100000F014F8BDE81040FFF78CBF10B500F0F0
:1009200063F8BDE81040FFF785BF08B569468DF84C
:1009300000000320ABBE08BD7047000010B50228C0
:1009400003D0410103D50DA112E0002010BD01012B
:1009500001D50FA10CE0C10001D511A108E0810073
:1009600001D512A104E0400001D513A100E000214F
:1009700015A0FFF7B3FF012010BD0000496E76619E
:100980006C6964204F7065726174696F6E0000005D
:10099000446976696465204279205A65726F000067
:1009A0004F766572666C6F7700000000556E646567
:1009B00072666C6F77000000496E65786163742021
:1009C000526573756C7400005349474650453A2090
:1009D00041726974686D65746963206578636570D8
:1009E00074696F6E3A20000010B5012805D000210F
:1009F00003A0FFF773FF012010BD09A1F8E7000075
:100A000053494752544D454D3A204F7574206F66F7
:100A10002068656170206D656D6F7279000000005F
:100A20003A2048656170206D656D6F727920636F43
:100A3000727275707465640055494A6822F44032D8
:100A40004A604A6843681A434A600268526822F45E
:100A5000807203685A6002685368026943EA02229E
:100A600003685A600268526822F0407203685A6054
:100A70000268526883681A4303685A600268926881
:100A800022F4006203689A6002689268C3681A439D
:100A900003689A603F4B826A9A4218D00268926853
:100AA00022F0706203689A6002689268836A1A434F
:100AB00003689A600268926822F0405203689A6064
:100AC00002689268C36A1A4303689A600BE002687E
:100AD000926822F0706203689A600268926822F05D
:100AE000405203689A600268926822F0020203682A
:100AF0009A6002689368027E43EA420203689A6041
:100B00002022125CA2B10268526842F400620368BB
:100B10005A600268526822F4604203685A600268B0
:100B20005368426A521E43EA423203685A6005E043
:100B30000268526822F4006203685A600268D26A4E
:100B400022F470020368DA620268D36A828B521E52
:100B500043EA02520368DA620268926822F4007281
:100B600003689A600268936890F8302043EA422252
:100B700003689A600268926822F4806203689A604F
:100B800002689368426943EA822203689A60704768
:100B9000002301400100000F00BFFEE710B502482E
:100BA00000F070FD10BD0000B809002010B502482B
:100BB00000F068FD10BD0000E009002070B505469A
:100BC0000C46284601F04FF80221284600F04AFB67
:100BD00006492868884202D10548046005E00549B5
:100BE0002868884201D10448046070BD0064004058
:100BF00078000020006800407C000020F8B5064620
:100C00000C4617461D460948046044600020074909
:100C10008860C860084605616B463A46304600F079
:100C200036FB08B10020F8BD0120FCE7C84A0020CF
:100C300010B58AB004460120089007900020069065
:100C40000290039000900190049005900A4920685A
:100C5000884204D16946204600F0C4FB0AE00749F7
:100C60002068884206D10E200990059069462046EA
:100C700000F0B8FB0AB010BD0064004000680040FE
:100C800010B509F043FC09F0C5F910BD10B50248D4
:100C900001F088F810BD0000580C002010B5024883
:100CA00001F080F810BD0000B80C002010B502481B
:100CB00001F078F810BD0000F80B002010B50248D4
:100CC00001F070F810BD0000180D002001460878F2
:100CD00010381823B0FBF3F20848805CC865032A7B
:100CE00005D908686FF30900001D886503E00868EE
:100CF0006FF309008865886D7047000044E10008C3
:100D0000014600208A6A8B69CBB932B1012A0DD025
:100D1000022A03D0032A10D10EE000BFCB6A03F0F1
:100D20008073B3F1807F00D1012007E0CB6AB3F17B
:100D3000C07F00D1012001E000E000BF34E08B69FA
:100D4000B3F5005F1AD132B1012A07D0022A03D0CD
:100D5000032A11D10AE000BF01200EE0CB6A03F0A4
:100D60008073B3F1807F00D1012006E0CB6AB3F13C
:100D7000C07F00D1012000E000BF15E032B1012AA0
:100D800005D0022A04D0032A0CD103E000BF00BF23
:100D9000012008E0CB6A03F08073B3F1807F00D1BB
:100DA000012000E000BF00BF704730B50468246830
:100DB00024F4802405682C60046863608468402CF7
:100DC00004D10468A2600468E16003E00468A160E3
:100DD0000468E26030BD000070B504460D4621464F
:100DE000074806F027FC0021064808F063F906488A
:100DF00007F0F4FF044808F071F8002070BD00000F
:100E0000B04C00204C4D0020044D0020704770472E
:100E1000074A126822F44072054B1A601A4612689B
:100E20001A601A46126842F001021A600170704797
:100E3000103C024010B50D49096821F440710B4C7B
:100E400021602146096841F440712160214609680A
:100E500041F001012160026000BF00BF00BFBFF38D
:100E60006F8F00BF00BF00BF436010BD103C024049
:100E7000084A126822F44072064B1A601A46126839
:100E800042F480721A601A46126842F001021A6037
:100E900001807047103C0240084A126822F44072F8
:100EA000064B1A601A46126842F400721A601A461B
:100EB000126842F001021A6001607047103C024063
:100EC0002A48006800F0100040B12948C06940F08D
:100ED00010002749C8611020244908602348006891
:100EE00000F0200040B12248C06940F008002049CD
:100EF000C86120201D4908601C48006800F04000BF
:100F000040B11B48C06940F004001949C861402045
:100F1000164908601548006800F0800040B1144888
:100F2000C06940F002001249C86180200F49086082
:100F30000E48006800F4807048B10D48C06940F068
:100F400001000B49C8614FF48070084908600748E8
:100F5000006800F0020040B10548C06940F0200080
:100F60000349C86102200149086070470C3C0240F7
:100F7000B80D002070B50446002500201449C86152
:100F800001F092FA054609E0601C38B124B101F085
:100F90008BFA401BA04201D9032070BD0D480068A8
:100FA00000F480300028EFD10A48006800F001000A
:100FB00010B10120074908600648006800F4F97084
:100FC00018B1FFF77DFF0120E7E70020E5E700000B
:100FD000B80D00200C3C024038B5024600200090BD
:100FE00000BF92F83C00012801D1022038BD012049
:100FF00082F83C0000BF0868092816D91068C0684C
:101000000C780A3C04EB44050724AC40A043146868
:10101000E0600C780A3C04EB44048868A040146843
:10102000E46820431468E06013E0106800690C78FD
:1010300004EB44050724AC40A043146820610C78FD
:1010400004EB44048868A0401468246920431468B1
:1010500020614868072817D21068406B0C79641E1D
:1010600004EB84051F24AC40A04314686063088827
:1010700080B20C79641E04EB8404A0401468646B95
:1010800020431468606331E048680D2817D2106867
:10109000006B0C79E41F04EB84051F24AC40A043D3
:1010A00014682063088880B20C79E41F04EB840480
:1010B000A0401468246B20431468206316E0106875
:1010C000C06A0C790D3C04EB84051F24AC40A0439E
:1010D0001468E062088880B20C790D3C04EB84044B
:1010E000A0401468E46A20431468E0621E4B1F4C61
:1010F0001068A0420AD10868122807D1586820F465
:1011000000005860586840F480005860174C106820
:10111000A04222D1164C0868A04202D008681128CB
:101120001BD1586820F480005860586840F40000D3
:1011300058600F4C0868A0420FD10E4800680E4C52
:10114000B0FBF4F000EB80004000009002E000985B
:10115000401E009000980028F9D100BF002082F8BE
:101160003C0000BF00BF41E70023014000200140D8
:10117000120000101400002040420F0070B5044619
:1011800000250CB9012070BD1549A06A884200D025
:1011900000BF206C30B9204600F024F800206064C5
:1011A00084F83C00206C00F0100088B9206C20F41A
:1011B000885040F0020020642046FFF73DFC0020EC
:1011C0006064206C20F0020040F00100206400E028
:1011D000012500BF002084F83C0000BF2846D2E76C
:1011E0000100000F10B586B00446142101A8FFF7D6
:1011F000DAF91949206888422BD100BF00200090FD
:101200001648006840F48070144908600846006879
:1012100000F48070009000BF00BF00BF002000906D
:101220000E481438006840F001000C491439086079
:101230000846006800F00100009000BF00BF402099
:101240000190032002900020039001A9044801F0BE
:101250000DF806B010BD00000020014044380240E7
:101260000000024010B5024692F82030012B01D058
:10127000022B06D1106840690843146860610020A1
:1012800010BD506A40F4802050620120F8E7F0B5AC
:1012900004460D461E4694F8207020688368A868AE
:1012A00000B900E000BF012F01D0022F7CD103F074
:1012B000806030B903F0006018B903F08050002856
:1012C00073D0C3F30161022905D9606A40F40000BC
:1012D00060620120F0BD012088403060A86860B9DC
:1012E000B5F800C0E86840EA4C5C206800F5C070C2
:1012F00000EB0110C0F800C00FE0D5E901C040EAE2
:10130000CC00D5F80CC040EA0C00D4F800C00CF5B5
:10131000C07C0CEB011CCCF80000D5F810C0206894
:1013200000F5C07000EB0110C0F804C0287D012852
:101330000ED1206800F5C07000EB0110406840F449
:10134000807C206800F5C07000EB0110C0F804C07C
:10135000D079000692F806C040EA0C4092F805C029
:1013600040EA0C2C10794CEA000C206800F5C070A3
:1013700000EB0110C0F80CC0D078000692F802C053
:1013800040EA0C4092F801C040EA0C2092F800C0FC
:1013900040EA0C00D4F800C00CF5C07C0CEB011C3A
:1013A000CCF80800206801E016E00FE000F5C070FE
:1013B00000EB0110006840F0010C206800F5C070DF
:1013C00000EB0110C0F800C0002083E7606A40F421
:1013D0000010606201207DE7606A40F48020606256
:1013E000012077E7F0B504460A46216894F82050BA
:1013F000012D01D0022D7ED1424901F5007108680E
:1014000040F001000860086820F47C50086008681B
:10141000566A40EA06200860107D00F01F06012091
:1014200000FA06F3C8699843C861A1F50071D06954
:10143000C8B9D1F80C029843C1F80C02908880B268
:10144000968940EA064601F51070576940F8376002
:10145000108880B2168940EA064601F51070576977
:1014600000EBC7004660D069012819D1D1F80C0201
:101470001843C1F80C02908880B2168840EA0646EC
:1014800001F51070576940F83760908980B216896D
:1014900040EA064601F51070576900EBC700466048
:1014A000906928B9D1F804029843C1F8040204E015
:1014B000D1F804021843C1F80402106928B9D1F820
:1014C00014029843C1F8140204E0D1F8140218433E
:1014D000C1F81402106A012804D1D1F81C02184383
:1014E000C1F81C02D1F8000220F00100C1F800028E
:1014F0000020F0BDFFE7606A40F4802060620120B8
:10150000F7E7000000640040704770B5044694F8A7
:101510002050012D01D0022D7DD151B92068C06825
:1015200000F0030080B9606A40F40010606201209E
:1015300070BD2068006900F0030028B9606A40F4BB
:10154000001060620120F3E7206800F5D87000EB1E
:101550000110006800F004009060906840B92068B5
:1015600000F5D87000EB01100068400D106007E036
:10157000206800F5D87000EB01100068C0085060CA
:10158000206800F5D87000EB0110006800F0020040
:10159000D060206800F5D87000EB0110406800F0C2
:1015A0000F001061206800F5D87000EB0110406852
:1015B00000F47F40000A9061206800F5D87000EBCD
:1015C00001104068000C5061206800F5D87000EBF5
:1015D000011080681870206800F5D87000EB0110C9
:1015E000806800F47F40000A5870206800F5D870C9
:1015F00000EB0110806800F47F00000C98702068F8
:1016000000F5D87000EB01108068000ED8702068DB
:1016100000F5D87000E02FE000EB0110C0681871F1
:10162000206800F5D87000EB0110C06800F47F401E
:10163000000A5871206800F5D87000EB0110C068EE
:1016400000F47F00000C9871206800F5D87000EB62
:101650000110C068000ED87131B92068C06840F030
:1016600020002668F06005E02068006940F0200056
:101670002668306100205BE7606A40F48020606289
:10168000012055E72DE9F05F0446002520684669F2
:101690002068D0F80490206887682068D0F80CA0F3
:1016A0002068D0F810B02068D0F8188006F001004B
:1016B000002855D007F00100C0B1012021688860E2
:1016C00007F0020018B1204600F0FDFA0EE007F026
:1016D000040010B145F4006508E007F0080010B1FF
:1016E00045F4805502E0204600F0ECFA07F48070E3
:1016F000C8B14FF480702168886007F4007018B199
:10170000204600F0E2FA0EE007F4806010B145F4E4
:10171000005508E007F4006010B145F4804502E090
:10172000204600F0D1FA07F48030C8B14FF4803081
:101730002168886007F4003018B1204600F0C7FA2D
:101740000EE007F4802010B145F4004508E007F4EE
:10175000002010B145F4803502E0204600F0B6FAD2
:1017600006F0080038B10AF0100020B145F4007509
:1017700010202168C86006F0040040B10AF008009B
:1017800028B108202168C860204600F00FFA06F052
:10179000020038B12068C06800F0030010B1204694
:1017A00000F006FA06F0400038B10BF0100020B14E
:1017B00045F4806510202168086106F0200040B1E2
:1017C0000BF0080028B1082021680861204600F0CD
:1017D0001BFA06F0100038B12068006900F0030021
:1017E00010B1204600F012FA06F4003040B109F0C2
:1017F000100028B1102021684860204600F032FA1D
:1018000006F4803040B109F0080028B108202168B2
:101810004860204600F05CFA06F4004088B309F006
:10182000040078B306F4807020B108F0010008B11C
:1018300045F0010506F4007020B108F0020008B17F
:1018400045F0020506F4806020B108F0040008B1FC
:1018500045F0040506F40060A0B108F0700088B1FE
:1018600008F07000402817D006DC10280BD0202884
:101870000CD0302819D10CE0502810D0602814D199
:1018800010E01DE019E045F008050FE045F01005F7
:101890000CE045F0200509E045F0400506E045F084
:1018A000800503E045F4807500E000BF00BF2068BC
:1018B000806920F0700021688861042021684860F8
:1018C0002DB1606A284360622046FFF71DFEBDE827
:1018D000F09F70B504460CB9012070BD94F820004B
:1018E00010B9204600F0B0F82068006820F002002F
:1018F0002168086000F0D8FD05460DE000F0D4FD39
:10190000401B0A2808D9606A40F400306062052054
:1019100084F820000120E0E72068406800F0020021
:101920000028EBD12068006840F0010021680860C1
:1019300000F0BAFD05460DE000F0B6FD401B0A2898
:1019400008D9606A40F400306062052084F8200005
:101950000120C2E72068406800F001000028EBD0B9
:10196000207E012806D12068006840F080002168B0
:10197000086005E02068006820F0800021680860A9
:10198000607E012806D12068006840F04000216890
:10199000086005E02068006820F0400021680860C9
:1019A000A07E012806D12068006840F02000216850
:1019B000086005E02068006820F0200021680860C9
:1019C000E07E012806D12068006820F01000216820
:1019D000086005E02068006840F010002168086099
:1019E000207F012806D12068006840F008002168A7
:1019F000086005E02068006820F0080021680860A1
:101A0000607F012806D12068006840F0040021684A
:101A1000086005E02068006820F004002168086084
:101A2000D4E90201084321690843616908436168F8
:101A3000491E08432168C86100206062012084F8C3
:101A40002000002049E7000010B586B004461421AC
:101A500001A8FEF7A8FD4F492068884241D14E48B1
:101A60000068401C4C4908600846006801280FD1F6
:101A700000BF002000904948006840F000704749CE
:101A800008600846006800F00070009000BF00BFCA
:101A900000BF0020009041481038006840F0080066
:101AA0003E49103908600846006800F008000090C0
:101AB00000BF00BF0320019002200290002003908D
:101AC000032004900920059001A9354800F0CEFBC1
:101AD00000220521142000F091FD142000F07EFD6D
:101AE00055E030492068884251D100BF0020009065
:101AF0002A48006840F0806028490860084600686D
:101B000000F08060009000BF00BF23480068401CC8
:101B1000214908600846006801280FD100BF002055
:101B200000901E48006840F000701C49086008469C
:101B3000006800F00070009000BF00BF00BF0020F0
:101B4000009016481038006840F002001349103920
:101B500008600846006800F00200009000BF00BF67
:101B60004FF4405001900220029000200390032087
:101B700004900920059001A90B4800F077FB002292
:101B80000521402000F03AFD402000F027FD06B07E
:101B900010BD0000006400400400002040380240F6
:101BA000000C024000680040000402407047000042
:101BB00010B504460F49206888420BD10E4B03F143
:101BC0000C0200212046FFF7A0FC0B480B490968D6
:101BD00088470EE00A49206888420AD1064B03F183
:101BE0000C0200212046FFF790FC034805490968D4
:101BF000884710BD00640040E04A002078000020C3
:101C0000006800407C0000207047000010B50446CA
:101C10000F49206888420BD10E4B03F10C020121C1
:101C20002046FFF772FC0B480B49096888470EE015
:101C30000A49206888420AD1064B03F10C020121AF
:101C40002046FFF762FC034805490968884710BD34
:101C500000640040084B002078000020006800402D
:101C60007C000020704770B5044694F820000128DD
:101C700022D1022084F820002068006820F00100B2
:101C80002168086000F010FC05460DE000F00CFC37
:101C9000401B0A2808D9606A40F4003060620520C1
:101CA00084F82000012070BD2068406800F0010029
:101CB0000028EBD16062F6E7606A40F400206062C1
:101CC0000120F0E7704770477047704770477047D2
:101CD000704770B50446A56D00F0E6FB064694F823
:101CE0003500022808D08020606500BF002084F8FD
:101CF000340000BF012070BD2068006820F016008D
:101D0000216808602068406920F0800021684861EF
:101D1000206C08B9A06C28B12068006820F0080089
:101D2000216808602068006820F0010021680860D0
:101D30000FE000F0B9FB801B05280AD92020606560
:101D400000BF002084F8340000BF032084F8350071
:101D5000D1E72068006800F001000028E9D194F87C
:101D60005C103F208840A86000BF002084F8340049
:101D700000BF012084F835000020BCE7014691F83F
:101D80003500022803D080204865012070470520D7
:101D900081F835000868006820F001000A681060CA
:101DA0000020F3E7F8B50446002000908C48006856
:101DB0004FF41651B0FBF1F7A56D2E6894F85C1046
:101DC00008208840304098B12068006800F0040086
:101DD00070B12068006820F004002168086094F861
:101DE0005C1008208840A860606D40F001006065CC
:101DF00094F85C1001208840304068B12068406948
:101E000000F0800040B194F85C1001208840A86088
:101E1000606D40F00200606594F85C10042088401A
:101E2000304068B12068006800F0020040B194F8CA
:101E30005C1004208840A860606D40F0040060657C
:101E400094F85C1010208840304078B32068006817
:101E500000F0080050B394F85C1010208840A8608F
:101E60002068006800F4802080B12068006800F4D9
:101E7000002028B9206CC8B12046216C884715E0A5
:101E8000A06C98B12046A16C88470FE020680068DC
:101E900000F4807028B92068006820F008002168EC
:101EA0000860206C10B12046216C884794F85C10C3
:101EB000202088403040002865D02068006800F06D
:101EC000100000285FD094F85C1020208840A860A3
:101ED00094F83500052828D12068006820F0160005
:101EE000216808602068406920F08000216848610E
:101EF000206C08B9A06C28B12068006820F00800A8
:101F00002168086094F85C103F208840A86000BFFA
:101F1000002084F8340000BF012084F83500206DD3
:101F200010B12046216D8847F8BD2068006800F494
:101F3000802080B12068006800F4002028B9606C1F
:101F400010B12046616C88471DE0E06BD8B1204697
:101F5000E16B884717E02068006800F4807068B97A
:101F60002068006820F010002168086000BF002091
:101F700084F8340000BF012084F83500E06B10B114
:101F80002046E16B8847606D38B3606D00F001005A
:101F9000F0B1052084F835002068006820F00100C9
:101FA0002168086000BF0098401C0090B84200D92A
:101FB00005E02068006800F001000028F3D100BFB0
:101FC00000BF002084F8340000BF012084F83500F1
:101FD000E06C10B12046E16C884700BFA4E7000028
:101FE000140000202DE9F0410446002500F05CFAC1
:101FF000074614B90120BDE8F081606A00B100BF56
:1020000000BF002084F8340000BF022084F83500AF
:102010002068006820F00100216808600AE000F0F4
:1020200043FAC01B052805D920206065032084F8E9
:102030003500E0E72068006800F001000028EED1DC
:102040002068056821480540D4E901010843E1689A
:1020500008432169084361690843A1690843E169AC
:102060000843216A08430543606A042803D1D4E980
:102070000B0108430543206805602068456925F089
:102080000705606A0543606A04280DD1A06A05430C
:10209000E06A48B12046FEF733FE28B14020606573
:1020A000012084F83500A6E7206845612046FEF748
:1020B0000DFE064694F85C103F208840B06000207A
:1020C0006065012084F83500002094E73F8010F01F
:1020D0002DE9F04704460D4616461F464FF000080E
:1020E000D4F8589000BF94F83400012802D102209F
:1020F000BDE8F087012084F8340000BF94F8350073
:10210000012825D1022084F83500002060653B4677
:10211000324629462046FEF748FE94F85C103F20E0
:102120008840C9F808002068006840F0160021685F
:102130000860206C28B12068006840F00800216821
:1021400008602068006840F001002168086006E02F
:1021500000BF002084F8340000BF4FF00208404662
:10216000C6E7000070B5044600F09EF90646254615
:10217000681C10B104480078054400BF00F094F9D1
:10218000801BA842FAD370BD1000002003480068ED
:1021900040F000400149086000207047103C0240B8
:1021A0002DE9F04106460F4614461D464FF0010842
:1021B00000BF1F48007E012802D10220BDE8F08147
:1021C00001201B49087600BF4CF25030FEF7D2FECA
:1021D0008046B8F1000F23D126B9E1B23846FEF7A8
:1021E00017FE12E0012E04D1A1B23846FEF740FEE0
:1021F0000BE0022E04D121463846FEF74DFE04E0E6
:1022000022462B463846FEF715FE4CF25030FEF7BC
:10221000B1FE80460748006820F0010005490860CB
:1022200000BF00200249087600BF4046C6E7000014
:10223000B80D0020103C024000200949096801F057
:10224000004159B10749064A0C3A1160064911602C
:102250000349096801F0004101B101207047000005
:10226000103C024023016745AB89EFCDF8B502462B
:102270000B460025002400200021E6E0012606FA96
:1022800001F51E6806EA0504AC4273D15E68012EB2
:1022900008D05E68022E05D05E68112E02D05E68FE
:1022A000122E13D190684F000326BE40B0434F005A
:1022B000DE68BE4030439060506801268E40B043D7
:1022C0001E79C6F300168E4030435060D0684F0030
:1022D0000326BE40B0434F009E68BE403043D060EE
:1022E0005E68022E02D05E68122E13D1CF0802F172
:1022F000200656F827004E07F70E0F26BE40B043C3
:102300004F07FF0E1E69BE403043CF0802F1200682
:1023100046F8270010684F000326BE40B0431E79E0
:1023200006F003064F00BE40304310605E6806F0C2
:102330008056B6F1805FA8D100BF00260096454EBA
:10234000366846F48046434F3E603E46366806F4A3
:102350008046009600BF00BF3F4E8F0856F827000A
:102360008E07370F0F26BE40B0433C4EB24202D11B
:1023700000262EE068E03A4EB24201D1012628E064
:10238000384EB24201D1022623E0374EB24201D18B
:1023900003261EE0354EB24201D1042619E0344E28
:1023A000B24201D1052614E0324EB24201D10626D6
:1023B0000FE0314EB24201D107260AE02F4EB24261
:1023C00001D1082605E02E4EB24201D1092600E0D7
:1023D0000A268F073F0FBE4030431F4E8F0846F836
:1023E0002700284E3068A0435E6806F48036B6F5B4
:1023F000803F00D12043234E3060361D3068A0431B
:102400005E6806F40036B6F5003F00D120431D4E4D
:10241000361D3060361D3068A0435E6806F48016B5
:10242000B6F5801F00D12043164E08363060361DA9
:102430003068A0435E6806F40016B6F5001F00D1B0
:102440002043104E0C363060491C1029FFF416AFA3
:10245000F8BD000044380240083801400000024046
:102460000004024000080240000C0240001002403C
:102470000014024000180240001C024000200240EC
:1024800000240240003C014042690A408A4202D1D5
:102490000A04826100E0816170470AB1816101E054
:1024A0000B0483617047000001480068704700001A
:1024B00008000020034800680349097808440149DE
:1024C00008607047080000201000002010B50D487B
:1024D000006840F400700B4908600846006840F44A
:1024E000806008600846006840F48070086003203F
:1024F00000F0C2F8002000F007F800F04BF80020D0
:1025000010BD0000003C024070B588B004460025B4
:10251000002600222146362000F070F8362000F018
:102520005DF800BF002001901648006840F01000E0
:10253000144908600846006800F01000019000BFD0
:1025400000BF02A903A800F007FA00F02DFA450029
:102550000D48B5FBF0F0461E0C480D49086040F2EE
:10256000E7310B48C160466000210161816000F0E5
:10257000FBFF20B9064801F02BF808B070BD012020
:10258000FBE700004038024040420F0000100040CE
:10259000780D002008B500BF002000900E480068AC
:1025A00040F480400C4908600846006800F4804010
:1025B000009000BF00BF00BF00200090081F00680F
:1025C00040F08050091F08600846006800F0805005
:1025D000009000BF00BF08BD4438024001460846D5
:1025E000002809DB00F01F0301229A4043099B00E9
:1025F00003F1E023C3F8002100BF70472DE9F05F2D
:1026000080460D461646002706F068FE0746394606
:102610002A46334601F00700C0F1070ABAF1040F59
:1026200002D94FF0040A01E0C0F1070AD14600F1D7
:10263000040ABAF1070F02D24FF0000A01E0A0F13C
:10264000030AD4464FF0010A0AFA09FAAAF1010A6C
:102650000AEA020A0AFA0CFA4FF0010B0BFA0CFB19
:10266000ABF1010B0BEA030B4AEA0B04214640468F
:1026700006F03CFEBDE8F09F00BF00F00702064BED
:1026800019684FF6FF031940044B0B4343EA02213C
:10269000014B196000BF70470CED00E00000FA0527
:1026A00000BF00BF00BF00BF00BFBFF34F8F00BF20
:1026B00000BF00BF0948006800F4E0600849084313
:1026C000001D0649086000BF00BF00BFBFF34F8F69
:1026D00000BF00BF00BF00BF00BFFDE70CED00E082
:1026E0000000FA052A49096821F0E0010268114357
:1026F000274A11602749096821F48031254A116071
:10270000111F096821F48031121F11602149091D30
:10271000096821F480311F4A121D1160111D0968DA
:1027200021F48031121D1160416801F48031B1F54E
:10273000803F07D11749091F096841F48031154AC4
:10274000121F1160416801F40031B1F5003F05D15D
:102750001049096841F480310E4A1160017901F095
:10276000010139B10B49091D096841F48031094A59
:10277000121D1160017901F00201022907D10549FA
:102780000831096841F48031024A0832116070470B
:1027900000700040043C014001200149086170477D
:1027A00000000E4210B5012080F3138800BFFFF730
:1027B00077FF10BD10B50648006800F4803028B1DE
:1027C000FFF7F0FF4FF480300149086010BD0000B2
:1027D000143C014070B504460D460CB9012070BD93
:1027E0005848006800F00F00A84209D255490D7002
:1027F0000846006800F00F00A84201D00120EEE773
:10280000207800F0020002281DD1207800F004009A
:10281000042805D14C48006840F4E0504A4908605B
:10282000207800F00800082805D14748006840F4E7
:102830006040454908604448006820F0F000A16805
:10284000084341490860207800F00100A8B360689F
:10285000012807D13C4808380068C0F34040B8B9A7
:102860000120BCE76068022802D06068032807D115
:10287000354808380068C0F3406048B90120AEE729
:10288000314808380068C0F3400008B90120A6E7C5
:102890002D48006820F00300616808432A49086059
:1028A000FFF702FE064609E0FFF7FEFD801B41F23E
:1028B0008831884202D9032091E707E02248006866
:1028C00000F00C006168B0EB810FEDD11D4800688D
:1028D00000F00F00A84209D91A490D700846006897
:1028E00000F00F00A84201D0012078E7207800F026
:1028F0000400042807D11448006820F4E050E1687F
:10290000084311490860207800F00800082808D121
:102910000D48006820F46040216940EAC1000A497E
:10292000086000F061F808490968C1F30311074A1B
:10293000515CC8400649086006480068FFF7E4FD9E
:1029400000204CE7003C0240083802404CE10008FF
:10295000140000200C0000200F2202600D4A1268B3
:1029600002F0030242600B4A126802F0F002826039
:10297000084A126802F4E052C260064A126802F481
:102980006042D2080261044A126802F00F020A6033
:102990007047000008380240003C024001480068CF
:1029A000704700001400002000B5FFF7F7FF04494E
:1029B0000968C1F38221034A515CC84000BD000090
:1029C000083802405CE1000800B5FFF7E7FF044962
:1029D0000968C1F34231034A515CC84000BD0000A0
:1029E000083802405CE100082DE9F047002400258A
:1029F0000026A1462548006800F00C0020B10428FC
:102A000005D008283AD105E0DFF8849039E0DFF8F6
:102A1000849036E01D48001F006800F03F041B480A
:102A2000001F006800F4800078B11A481749091F98
:102A30000968C1F38811A0FB0170014622460023FA
:102A40003846FDF7ABFC05460EE011480F49091F5B
:102A50000968C1F38811A0FB0170014622460023DA
:102A60003846FDF79BFC05460848001F0068C0F388
:102A70000140401C4600B5FBF6F902E0DFF810907B
:102A800000BF00BF4846BDE8F0870000083802409C
:102A90000024F400001BB700F8B504460CB901206F
:102AA000F8BD207800F00100002874D0F9480068D3
:102AB00000F00C0004280DD0F648006800F00C006F
:102AC000082813D1F348001F006800F48000B0F517
:102AD000800F0BD1EF4808380068C0F34040002851
:102AE00059D06068002856D10120D9E700BF60683E
:102AF000B0F5803F08D1E7480838006840F48030DE
:102B0000E449083908601EE06068B0F5A02F0DD1D7
:102B1000E0480838006840F48020DE490839086041
:102B20000846006840F4803008600CE0D948083856
:102B3000006820F48030D7490839086008460068EA
:102B400020F48020086000BF606890B1FFF7ACFC03
:102B5000054606E0FFF7A8FC401B642801D90320C6
:102B60009EE7CC4808380068C0F340400028F1D008
:102B700011E0FFF799FC054606E0FFF795FC401BC6
:102B8000642801D903208BE7C24808380068C0F3E5
:102B900040400028F1D1207800F0020002285FD1E7
:102BA000BC48006800F00C0058B1BA48006800F05A
:102BB0000C0008281CD1B748001F006800F48000F2
:102BC000B0B9B44808380068C0F3400020B1E068EC
:102BD000012801D0012063E7AE480838006820F0E2
:102BE000F800216940EAC100AA490839086037E0C5
:102BF000E06800B30120A8490860FFF755FC0546CE
:102C000006E0FFF751FC401B022801D9032047E7EB
:102C1000A04808380068C0F340000028F1D09D4863
:102C20000838006820F0F800216940EAC10099499D
:102C30000839086014E0002097490860FFF734FC69
:102C4000054606E0FFF730FC401B022801D90320AF
:102C500026E7904808380068C0F340000028F1D10A
:102C6000207800F0080008282CD16069A8B1012064
:102C70008A490860FFF718FC054606E0FFF714FCD8
:102C8000401B022801D903200AE782486C30006803
:102C9000C0F340000028F1D014E000207F49086014
:102CA000FFF702FC054606E0FFF7FEFB401B02288B
:102CB00001D90320F4E677486C300068C0F3400087
:102CC0000028F1D1207800F00400042870D10027FA
:102CD00070483830006800F0805090B900BF002084
:102CE00000906C483830006840F0805069493831B5
:102CF00008600846006800F08050009000BF00BFE8
:102D000001276748006800F48070B0B96448006823
:102D100040F4807062490860FFF7C6FB054606E094
:102D2000FFF7C2FB401B022801D90320B8E65C482C
:102D3000006800F480700028F2D000BFA06801286D
:102D400008D154486830006840F0010051496831AA
:102D500008601DE0A06805280DD14E486830006865
:102D600040F004004B49683108600846006840F0B4
:102D7000010008600CE047486830006820F001005E
:102D80004449683108600846006820F00400086083
:102D900000BFA068A8B1FFF787FB054609E0FFF771
:102DA00083FB401B41F28831884202D9032077E639
:102DB00026E0384868300068C0F340000028EED0B4
:102DC00013E0FFF771FB054608E0FFF76DFB401BC2
:102DD00041F28831884201D9032061E62D486830EC
:102DE0000068C0F340000028EFD1012F07D1294827
:102DF0003830006820F0805026493831086000BF24
:102E0000A069002845D02348006800F00C0008287D
:102E10005DD0A069022845D100201F490866FFF750
:102E200043FB054606E0FFF73FFB401B022801D9A4
:102E3000032035E6174808380068C0F340600028D2
:102E4000F1D1D4E907010843616A40EA8111012206
:102E5000A06AC2EB500041EA00412C20005D41EA2B
:102E600000600C49091F086001200B490866FFF744
:102E70001BFB054606E0FFF717FB401B022801D9A4
:102E800003200DE6034808380068C0F340600028BE
:102E9000F1D03FE00838024000004742800E474230
:102EA0000070004000201C490866FFF7FDFA054647
:102EB00006E0FFF7F9FA401B022801D90320EFE5ED
:102EC00016480068C0F340600028F2D122E0A069F3
:102ED000012800D1E4E51148001D066806F48001D0
:102EE000E069814214D106F03F01206A81420FD18E
:102EF00047F6C0703040616A884209D106F440311B
:102F0000A06A814204D106F07061E06A814201D07A
:102F10000120C5E50020C3E500004742003802401B
:102F200010B504460CB9012010BD606A00B900BF9D
:102F30000021A16294F8510028B9002084F85000C3
:102F4000204600F033F8022084F851002068006821
:102F500020F0400021680860D4E901010843E168DD
:102F600008432169084361690843218B01F400711A
:102F70000843E1690843216A0843A16A08432168BC
:102F800008600421A06901EA1040616A08432168D1
:102F900048602068C06920F400602168C861002092
:102FA0006065012084F851000020BDE710B586B0AF
:102FB0000446142101A8FDF7F6FA44492068884226
:102FC0004DD100BF002000904148006840F480507F
:102FD0003F4908600846006800F48050009000BF38
:102FE00000BF00BF0020009039481438006840F04E
:102FF00002003749143908600846006800F00200F2
:10300000009000BF00BF00BF00200090084600688D
:1030100040F0010008600846006800F001000090E0
:1030200000BF00BF182001900220029000200390F2
:10303000032004900520059001A92648FFF716F902
:103040008020019002200290002003900320049031
:103050000520059001A92048FFF708F934E01F4931
:103060002068884230D100BF0020009018480068D6
:1030700040F48010164908600846006800F480108B
:10308000009000BF00BF00BF00200090104814381F
:10309000006840F020000E491439086008460068B6
:1030A00000F02000009000BF00BF4FF4607001905E
:1030B0000220029000200390032004900520059038
:1030C00001A90748FFF7D2F806B010BD0030014053
:1030D0004438024000040240000002400050014019
:1030E000001402402DE9F84F0446884616461D4656
:1030F0004FF0000A00BF94F85000012802D10220CE
:10310000BDE8F88F012084F8500000BFFFF7CCF92C
:103110000746B14694F85100012802D04FF0020A48
:10312000A7E0B8F1000F00D016B94FF0010AA0E0F7
:10313000032084F8510000206065C4F83080A68622
:10314000E686A063A087E08760642064A068B0F58D
:10315000004F05D12068006840F480402168086075
:103160002068006800F04000402805D02068006812
:1031700040F0400021680860E068B0F5006F2FD192
:10318000606810B1B9F1010F09D1206B0088216886
:10319000C860206B801C2063E08E401EE0861BE030
:1031A0002068806800F0020002280AD1206B0088A5
:1031B0002168C860206B801C2063E08E401EE08682
:1031C0000AE0FFF771F9C01BA84201D3681C00B9DF
:1031D00015B94FF0030A4CE0E08E0028E0D12EE054
:1031E000606810B1B9F1010F09D1206B0078216836
:1031F0000873206B401C2063E08E401EE0861BE0BD
:103200002068806800F0020002280AD1206B007854
:1032100021680873206B401C2063E08E401EE0860E
:103220000AE0FFF741F9C01BA84201D3681C00B9AE
:1032300015B94FF0030A1CE0E08E0028E0D13A46B1
:103240002946204602F086FB08B120206065A06870
:1032500050B900BF002000902068C068009020682E
:103260008068009000BF00BF606D08B14FF0010A98
:1032700000BF012084F8510000BF002084F85000F6
:1032800000BF50463CE72DE9FF5F04468846914663
:103290001D460E9E012002900020019000BF94F870
:1032A0005000012803D1022004B0BDE8F09F0120A6
:1032B00084F8500000BFFFF7F7F8074694F851B0C4
:1032C00060680390AA46BBF1010F0BD00398B0F5DC
:1032D000827F04D1A06810B9BBF1040F02D0022094
:1032E0000190DBE0B8F1000F03D0B9F1000F00D07E
:1032F00015B901200190D1E094F85100042802D0C2
:10330000052084F8510000206065C4F83890E587F6
:10331000A587C4F83080E586A586206460642068AF
:10332000006800F04000402805D02068006840F0A8
:10333000400021680860E068B0F5006F4AD160681D
:1033400010B1BAF1010F09D1206B00882168C86063
:10335000206B801C2063E08E401EE08633E02068F6
:10336000806800F00200022810D1E08E70B102984F
:1033700001280BD1206B00882168C860206B801C5D
:103380002063E08E401EE086002002902068806866
:1033900000F0010068B1E08F58B12068C068A16BEF
:1033A0000880A06B801CA063E08F401EE087012096
:1033B0000290FFF779F8C01BB04204D3701C10B123
:1033C000032001906AE0E08E0028C8D1E08F002839
:1033D000C5D14AE0606810B1BAF1010F09D1206B84
:1033E000007821680873206B401C2063E08E401E2B
:1033F000E08634E02068806800F00200022810D1E6
:10340000E08E70B1029801280BD1206B0078216802
:103410000873206B401C2063E08E401EE086002075
:1034200002902068806800F0010068B1E08F58B118
:103430002068C068A16B0870A06B401CA063E08F7F
:10344000401EE08701200290FFF72EF8C01BB0421B
:1034500001D3701C00B916B9032001901EE0E08E64
:103460000028C7D1E08F0028C4D13A463146204613
:1034700002F070FA20B101200190202060650DE07B
:10348000A06850B900BF002000902068C06800907C
:1034900020688068009000BF00BF00BF012084F852
:1034A000510000BF002084F8500000BF0198FBE6E7
:1034B0007047704730B502460B4600BF92F83C009B
:1034C000012801D1022030BD012082F83C0000BF5C
:1034D000022082F83D00106844681068816824F07A
:1034E00070041868044310684460184D1068A842BE
:1034F0001BD01068B0F1804F17D0154D1068A8424E
:1035000013D0144D1068A8420FD0134D1068A84274
:103510000BD0124D1068A84207D0114D1068A84278
:1035200003D0104D1068A84205D121F080015868E1
:10353000014310688160012082F83D0000BF002037
:1035400082F83C0000BF00BFBDE700000000014062
:103550000004004000080040000C0040000401404E
:10356000004001400018004010B504460CB901208D
:1035700010BD94F83D0028B9002084F83C00204696
:1035800000F00CF8022084F83D00211D206802F0B4
:103590006FFB012084F83D000020E9E708B50A4AE6
:1035A000016891420FD100BF0021009107490968CD
:1035B00041F04001054A11601146096801F04001DF
:1035C000009100BF00BF08BD001800404038024015
:1035D00001460868C06840F001000B68D8600868C0
:1035E000806800F00702062A05D00868006840F0ED
:1035F00001000B681860002070472DE9F041044677
:103600000D4600BF94F83C00012802D10220BDE81D
:10361000F081012084F83C0000BF022084F83D00C6
:103620002068866826F0770626F47F462068866044
:103630002868502833D00CDC202850D004DC002827
:103640004BD0102851D149E0302849D040284CD1E6
:1036500039E060282DD0702807D0B0F5805F03D006
:10366000B0F5005F41D10DE040E0D5E902136A6892
:10367000206802F07AFB2068866846F077062068AA
:10368000866033E0D5E902136A68206802F06DFBBA
:103690002068806840F480402168886026E0EA68FD
:1036A0006968206802F052FC5021206802F068FB33
:1036B0001CE0EA686968206802F05BFC6021206811
:1036C00002F05EFB12E0EA686968206802F03EFCE6
:1036D0004021206802F054FB08E000BF00BF00BF9B
:1036E0002968206802F04CFB00E000BF00BF012009
:1036F00084F83D0000BF002084F83C0000BF00BFFC
:1037000085E7704710B5044620680069C0F34000A3
:10371000D8B12068C068C0F34000B0B16FF00200BB
:1037200021680861012020772068806900F003008B
:1037300018B12046FFF7E5FF05E0204600F004F948
:10374000204600F0BBF90020207720680069C0F314
:103750008000D8B12068C068C0F38000B0B16FF0BD
:10376000040021680861022020772068806900F445
:10377000407018B12046FFF7C4FF05E0204600F076
:10378000E3F8204600F09AF90020207720680069CD
:10379000C0F3C000D8B12068C068C0F3C000B0B1A9
:1037A0006FF0080021680861042020772068C06954
:1037B00000F0030018B12046FFF7A3FF05E0204604
:1037C00000F0C2F8204600F079F900202077206848
:1037D0000069C0F30010D8B12068C068C0F30010C1
:1037E000B0B16FF0100021680861082020772068D0
:1037F000C06900F4407018B12046FFF782FF05E071
:10380000204600F0A1F8204600F058F9002020776B
:103810002068006900F0010058B12068C06800F01D
:10382000010030B16FF0010021680861204600F00E
:1038300073F920680069C0F3C01058B12068C068EF
:10384000C0F3C01030B16FF08000216808612046DD
:10385000FFF72EFE20680069C0F3801058B1206881
:10386000C068C0F3801030B16FF04000216808617B
:10387000204600F05DF920680069C0F3401058B19F
:103880002068C068C0F3401030B16FF0200021689C
:1038900008612046FFF70DFE10BD000010B586B090
:1038A0000446142101A8FCF77EFE224920688842C4
:1038B0001DD100BF002000901F48006840F00200AA
:1038C0001D4908600846006800F00200009000BF33
:1038D00000BF20200190022002900020039004905D
:1038E0000220059001A91548FEF7C0FC20E014490C
:1038F000206888421CD100BF002000900E4800685C
:1039000040F080000C4908600846006800F0800024
:10391000009000BF00BF40200190022002900020D4
:10392000039004900920059001A90648FEF79EFC2B
:1039300006B010BD000400403038024000040240D0
:1039400000180040001C0240704770B504460D4648
:10395000164600BF94F83C00012801D1022070BD3A
:10396000012084F83C0000BF022084F83D0036B1FD
:10397000042E1BD0082E31D00C2E5ED145E02946F6
:10398000206802F007FA2068806940F0080021688A
:1039900088612068806920F00400216888612068BF
:1039A0008069296908432168886147E029462068C1
:1039B00002F028FA2068806940F40060216888617C
:1039C0002068806920F480602168886120688069AF
:1039D000296940EA0120216888612FE02946206892
:1039E00002F04EFA2068C06940F008002168C86102
:1039F0002068C06920F004002168C8612068C0699F
:103A0000296908432168C86118E02946206802F046
:103A100073FA2068C06940F400602168C8612068BA
:103A2000C06920F480602168C8612068C069296984
:103A300040EA01202168C86100E000BF00BF01200A
:103A400084F83D0000BF002084F83C0000BF00BFA8
:103A500085E710B504460CB9012010BD94F83D006F
:103A600028B9002084F83C00204600F00DF8022020
:103A700084F83D00211D206802F0FAF8012084F846
:103A80003D000020E9E7000008B50A4A01689142BC
:103A90000FD100BF002100910749096841F00201E0
:103AA000054A11601146096801F00201009100BF4A
:103AB00000BF08BD000400404038024070470000CD
:103AC00070B504460E4601223146206802F03CF9EA
:103AD0000F492068884203D00E492068884201D1EE
:103AE000012000E0002028B12068406C40F4004034
:103AF000216848642068806800F00705062D05D01D
:103B00002068006840F0010021680860002070BD56
:103B1000000001400004014010B50446034920683C
:103B2000884201D1FEF7C6FC10BD00000010004025
:103B3000704770B50446002520684069C0F3C01581
:103B400094F8390021280ED16DB12068406920F029
:103B5000800021684861206B10B1206BFEF7B9F836
:103B6000204602F015FC20684069C0F3801594F8E7
:103B70003A0022280ED16DB12068406920F0400043
:103B800021684861606B10B1606BFEF7A2F82046B7
:103B900002F0DEFB002070BD704700002DE9F04709
:103BA0000446206805682068C668206847694FF0A9
:103BB0000008C14605F00F08B8F1000F0AD105F062
:103BC000200038B106F0200020B1204602F0EAFBC8
:103BD000BDE8F087B8F1000F72D007F0010018B906
:103BE00006F4907000286BD005F0010030B106F4A7
:103BF000807018B1E06B40F00100E06305F0040054
:103C000030B107F0010018B1E06B40F00200E06352
:103C100005F0020030B107F0010018B1E06B40F090
:103C20000400E06305F0080048B106F0200010B978
:103C300007F0010018B1E06B40F00800E063E06BB2
:103C400070B305F0200028B106F0200010B1204626
:103C500002F0A8FB20684069C0F38019E06B00F017
:103C6000080010B9B9F1000F23D0204602F070FB14
:103C70002068406900F04000402816D12068406963
:103C800020F0400021684861606B50B11748616BBB
:103C90000865606BFEF772F810B1606B016D8847C4
:103CA0000CE02046FFF778FF08E02046FFF774FF9E
:103CB00004E02046FFF770FF0020E06388E7FFE79D
:103CC00005F0800030B106F0800018B1204602F007
:103CD000B1FD7DE705F0400030B106F0400018B1BD
:103CE000204602F045FB73E700BF71E799620008C8
:103CF00010B504460CB9012010BDA06900B100E068
:103D000000BF94F8390028B9002084F83800204614
:103D100000F028F8242084F839002068C06820F4D6
:103D200000502168C860204602F090FB20680069BE
:103D300020F49040216808612068406920F02A0042
:103D4000216848612068C06840F400502168C8605C
:103D50000020E063202084F8390084F83A00002035
:103D6000CAE7000010B586B00446142101A8FCF78C
:103D70001AFCAD492068884277D100BF002000902E
:103D8000AA48006840F01000A8490860084600688A
:103D900000F01000009000BF00BF00BF00200090A6
:103DA000A2481438006840F00200A04914390860A5
:103DB0000846006800F00200009000BF00BF00BF8E
:103DC000002000900846006840F0010008600846A6
:103DD000006800F00100009000BF00BF802001904B
:103DE00002200290002003900320049007200590F9
:103DF00001A98F48FEF73AFA4FF4007001900220B3
:103E0000029000200390032004900720059001A950
:103E10008848FEF72BFA8848884908604FF0006010
:103E20004860002185488160C1604FF48061016174
:103E30000021416181614FF48071C1610021016203
:103E40004162FEF7CFF808B1FCF7E1FF00BF7B4805
:103E50006063846300BF002205212520FEF7CEFBAE
:103E60002520FEF7BBFBDCE0FFE7754920688842B0
:103E70007BD100BF002000906C48001F006840F418
:103E800080206A49091F08600846006800F4802005
:103E9000009000BF00BF00BF0020009063481438AE
:103EA000006840F00800614914390860084600685D
:103EB00000F00800009000BF00BF4FF44070019078
:103EC0000220029000200390032004900720059018
:103ED00001A95C48FEF7CAF95B485C4908604FF0ED
:103EE00000604860002159488160C1604FF48061E2
:103EF00001610021416181614FF48071C161002144
:103F000001624162FEF76EF808B1FCF780FF00BF66
:103F10004E486063846300BF4B4830304C490860B2
:103F20004FF0006048604021494881600021C16035
:103F30004FF480610161002141618161C1610162D1
:103F40004162FEF74FF808B1FCF761FF00BF40483F
:103F50002063846300BF002205212720FEF74EFB6B
:103F60002720FEF73BFB5CE0FFE73A4920688842E8
:103F700057D100BF002000902C48006840F020007E
:103F80002A4908600846006800F02000009000BF41
:103F900000BF00BF0020009024481438006840F0A3
:103FA00040002249143908600846006800F04000CB
:103FB000009000BF00BF4FF48440019002200290A7
:103FC00000200390032004900820059001A92248B6
:103FD000FEF74CF918486030204908604FF0206027
:103FE000486040211D4881600021C1604FF480611C
:103FF0000161002141618161C16101624162FDF79E
:10400000F1FF08B1FCF703FF00BF1448206384638D
:1040100000BF002205214720FEF7F0FA4720FEF7F7
:10402000DDFA06B010BD0000001001404438024027
:10403000000402400000024040640240F80B0020EF
:1040400000480040000C024028600240580C00204C
:10405000B80C00200014014000180240180D002088
:1040600077B581B00446154694F83A00202850D11F
:10407000029800B115B9012004B070BD00BF94F8DA
:104080003800012801D10220F6E7012084F8380029
:1040900000BF0298A062A5850020E063222084F87A
:1040A0003A001D48616BC8631C48616B08641C487A
:1040B000616BC8640020616B086502AE32682368DA
:1040C000191D2B46606BFEF703F800BF002000901F
:1040D00020680068009020684068009000BF00BF22
:1040E00000BF002084F8380000BF2068C06840F49A
:1040F00080702168C8602068406940F00100216834
:1041000048612068406940F0400021684861002013
:10411000B2E70220B0E70000FD6200084363000838
:10412000AD620008704770477047000010B5054940
:104130000869804703494869804702498869804780
:1041400010BD00007C05002000B52DED108B93B054
:10415000FE4890ED000AD0ED000A20EE200A8DED19
:10416000060A90ED000AFA48D0ED000A20EE200A77
:10417000F0EE40CAF54890ED000AF648D0ED000A8E
:1041800020EE200AB0EE409AF04890ED000AF24886
:10419000D0ED000A20EE200A8DED050AEC4890EDE6
:1041A000000AD0ED000A20EE200AB0EE40DA90EDD1
:1041B000000AE848D0ED000A20EE200A8DED040A3E
:1041C000E34890ED000AE448D0ED000A20EE200A12
:1041D000F0EE409ADF4890ED000AD0ED000A20EEA4
:1041E000200AB0EE40AA90ED000ADB48D0ED000AAC
:1041F00020EE200AF0EE40DA90ED000AD0ED000A41
:1042000020EE200AB0EE40EAD44890ED040AD448EB
:1042100080ED000AD14890ED050AD24880ED000AF1
:10422000CE4890ED060AD04880ED000ACB48B0F9A0
:10423000000000EE100AB8EEC00ACC4880ED000A7B
:10424000C648B0F9020000EE100AB8EEC00AC8482D
:1042500080ED000AC148B0F9040000EE100AB8EE83
:10426000C00AC44880ED000ABC48B0F9060000EE60
:10427000100AB8EEC00AC04880ED000AB748B0F98D
:10428000080000EE100AB8EEC00ABC4880ED000A33
:10429000B248B0F90A0000EE100AB8EEC00AB848F9
:1042A00080ED000AFEF700F9B6490860084600688C
:1042B000B5490968401A00EE100AB8EE400ADFED71
:1042C000B30A80EE201AF0EE418AAE480068AE498B
:1042D0000860A648D0ED000A90ED001A60EE810A51
:1042E000A34890ED001AD0ED001A41EE210AA14832
:1042F00090ED001AD0ED001A41EE210AB0EE600AEE
:1043000005F0EAFFB0EE408A984890ED000A20EEF2
:10431000080A80ED000A964890ED000A20EE080A8F
:1043200080ED000A934890ED000A20EE080A80ED27
:10433000000A9FED970A904880ED000A9FED940ACD
:104340008E4880ED000A9FED920A8D4880ED000AAC
:10435000894890ED000AF0EE000A20EE200AF6EE01
:10436000000A70EECA0A70EECE0A20EE200A8348D8
:10437000D0ED000AB0EE001A60EE811ADDED040AFD
:104380009DED051A70EEC10A01EEA00A7C48D0ED41
:10439000000AB0EE001A60EE810A39EE891A00EECA
:1043A000810A8DED110A744890ED000AF0EE000AC2
:1043B00020EE201A9DED040ADDED050A30EE200AFC
:1043C00021EE000A6D48D0ED000AB0EE001A60EE52
:1043D000810AB6EE001A31EE4D1A31EE4E1A00EE99
:1043E000810A6748D0ED000AB0EE001A60EE810A3B
:1043F0003DEEEC1A00EE810A8DED100A5E4890ED5C
:10440000000AF0EE000A20EE200A79EEC90A20EE3A
:10441000200A5A48D0ED000AB0EE001A60EE810A78
:104420003DEEAC1A00EE810A5548D0ED000AB0EE20
:10443000001A60EE810AB6EE001A31EE4D1A31EE26
:104440004A1A00EE810AF0EE40AA9DED110A60EED4
:10445000000A9DED100A40EE000A10EE901A084680
:1044600009F01CFCCDE900019DED000B05F092FB6D
:104470008DED020B9DED020B51EC100B08F0A2F834
:104480000EEE900AB0EE6AFA39EEC90AF0EE000AB2
:1044900020EE200A8DED0F0A3CEEAD0AF0EE000A88
:1044A00020EE200A8DED0E0A9DED060A30EE4D0A33
:1044B00030EE4A0A30EE0E0A8DED0D0AB0EE000A1B
:1044C0002EEE800AF6EE000A70EECA0A70EECE0AF0
:1044D00020EE200AF0EE000A6FEE200A39EEC91A2B
:1044E00000EE810A8DED0C0AB0EE000A2EEE801A65
:1044F000DDED040A9DED050A30EEC00A21EE000A4A
:10450000F0EE000A6FEE200A3CEEAD1A00EE810AD2
:104510008DED0B0AB0EE000A2EEE800A79EE290A24
:1045200020EE200AF0EE000A6FEE200AB6EE001A26
:1045300031EE4D1A31EE4A1A00EE810A8DED0A0A6B
:104540000B48D0ED000A9DED0D0A23E098050020F0
:104550009C050020A0050020A4050020786700200D
:10456000B4050020B8050020BC050020C0050020CF
:10457000C4050020C8050020CC050020D00500207F
:10458000D4050020DC050020D80500200000FA44F6
:104590000000000020EE800AB54890ED001ADDED25
:1045A0000E0A01EE600AB34890ED001ADDED0A0A2A
:1045B00021EE201AB048D0ED001ADDED0B0A01EE15
:1045C000E01A30EE010AF0EE40FAA948D0ED000AF8
:1045D0009DED0F0A20EE800AA84890ED001ADDED4F
:1045E0000D0A01EE600AA44890ED001ADDED0C0AF8
:1045F00021EE201AA248D0ED001ADDED0A0A01EEE4
:10460000E01A30EE010A8DED090A9C48D0ED000A4F
:104610009DED0E0A60EE800A9A4890ED001A9DED1D
:104620000F0A41EE400A964890ED001A9DED0B0AE4
:1046300021EE001A8F48D0ED001A9DED0C0A01EE14
:10464000C01A30EE810A8DED080AF5EEC0FAF1EEDF
:1046500010FA63D09DED090AB5EEC00AF1EE10FA2A
:104660005CD09DED080AB5EEC00AF1EE10FA55D007
:104670009FED850A6FEE800A844890ED000A00EEF7
:10468000A80A80ED000A9DED090ADFED7F0A60EEC1
:10469000200A7F4890ED000A00EEA80A80ED000A8B
:1046A0009DED080ADFED780A60EE200A794890ED6A
:1046B000000A00EEA80A80ED000A774890ED000A93
:1046C000F0EE000A00EEAF0A7048D0ED000A30EEBE
:1046D000200A714880ED000A7048D0ED000A9DED77
:1046E000090AB0EE001A41EE000A694890ED000A8E
:1046F00030EE800A694880ED000A6948D0ED000A72
:104700009DED080AB0EE001A41EE000A614890EDF6
:10471000000A30EE800A624880ED000A614890EDA0
:10472000000AB1EE400A5C48D0ED000A20EE200AF3
:104730005D48D0ED000A594890ED001A00EEC10A1C
:104740005A4890ED001A5648D0ED001AF0EE400A93
:1047500041EE610A564890ED000A00EEA80A8DED80
:10476000070A90ED000A4C48D0ED000A20EE200A1E
:104770004D48D0ED000A4A4890ED001A00EE810A3B
:104780004A48D0ED000A454890ED001A00EEC10AF3
:104790004448D0ED000AB0EE60BA00EE28BA4448B2
:1047A00090ED000A3D48D0ED000A20EE200A3D4879
:1047B000D0ED000A3A4890ED001A00EEC10A3B48DD
:1047C000D0ED000A344890ED001A00EE810A364818
:1047D000D0ED000AF0EE60BA40EE28BA344890ED11
:1047E000000A2F48D0ED000A20EE200A2D48D0ED17
:1047F000000A2A4890ED001A00EE810A2A48D0EDFE
:10480000000A254890ED001A00EEC10A2748D0EDB5
:10481000000AB0EE60CA00EE28CADDED070A60EEBD
:10482000A00A4BEE0B0A4BEEAB0A4CEE0C0AB0EEB4
:10483000600A05F051FDB0EE408A9DED070A20EEBA
:10484000080A1B4880ED000A2BEE080A154880ED87
:10485000000A2BEE880A144880ED000A2CEE080AA4
:10486000124880ED000A13B0BDEC108B00BD0000B3
:10487000C8050020D0050020D4050020C005002078
:10488000CC050020C40500200AD7233CA805002041
:10489000AC050020B0050020B4050020B8050020BC
:1048A000BC0500209C050020A0050020A4050020D8
:1048B0009805002010B52DED0C8BD54890ED000A21
:1048C000F8EE000A20EE200AD0ED000A20EE200AC1
:1048D000D048D0ED000AB0EE001A60EE810A90EDEB
:1048E000001A00EEC10AF7EE000A30EE200A10EEC0
:1048F000101A084609F0D2F941EC1C0BC64890ED9D
:10490000000AF0EE000A20EE200AC148D0ED000AAD
:1049100020EE200AC148D0ED000AB0EE001A60EE89
:10492000810ABC4890ED001A00EE810A10EE101AC0
:10493000084609F0B3F941EC1D0BB0EE4C1AF0EE4D
:104940006C1AB0EE4D0AF0EE6D0A05F019F8B0EEF3
:1049500040BAF0EE60BA51EC1B0B07F027FE41ECB9
:104960001A0B9FEDAF0B53EC102B08F099FB41ECA9
:10497000190B9FEDAD0B53EC102B07F085FF41ECAD
:10498000180B07F01FFEAA490863A34890ED000A20
:10499000F8EE000A20EE200A9E48D0ED000A20EE34
:1049A000200A9E48D0ED000AB0EE001A60EE810A9F
:1049B000974890ED001A00EE810A10EE101A084692
:1049C00009F06CF941EC1C0BB0EE4C0AF0EE6C0AED
:1049D00004F0BAFCB0EE40BAF0EE60BA51EC1B0B3A
:1049E00007F0E4FD41EC1A0B9FED8D0B53EC102BFF
:1049F00008F056FB41EC190B9FED8B0B53EC102B81
:104A000007F042FF41EC180B07F0DCFD8849C86253
:104A1000814890ED000AF8EE000A20EE200AD0ED61
:104A2000000A20EE200A7A48D0ED000AB0EE001A03
:104A300060EE810A90ED001A00EEC10AF7EE000A5E
:104A400030EE200A10EE101A084609F027F941EC62
:104A50001B0B6F4890ED000AF0EE000A20EE200AD2
:104A60006C48D0ED000A20EE200A6C48D0ED000A18
:104A7000B0EE001A60EE810A674890ED001A00EE71
:104A8000810A10EE101A084609F008F941EC1C0BD7
:104A9000B0EE4B1AF0EE6B1AB0EE4C0AF0EE6C0A68
:104AA00004F06EFFB0EE40AAF0EE60AA9FED5C0B42
:104AB00053EC102B51EC1A0B08F0F2FA41EC190BE5
:104AC0009FED590B53EC102B07F0DEFE41EC180B59
:104AD00007F078FD56498862084690ED0C0AD0ED43
:104AE0000E0A30EE600ADFED530AB4EEE00AF1EE92
:104AF00010FA03D2808F401C00B288874C4890ED9A
:104B00000E0AD0ED0C0A30EE600ADFED4A0AB4EE70
:104B1000E00AF1EE10FA04D2808F401E00B2444940
:104B200088874348D0ED0C0A808F4FF4B47110FB96
:104B300001F000EE100AB8EEC00A30EE800A3C48E0
:104B400080ED0D0A90ED0C0A80ED0E0A90ED0B0A37
:104B5000D0ED110A30EE600ADFED360AB4EEE00A5D
:104B6000F1EE10FA06D2B0F84800401C00B230490D
:104B7000A1F848002E4890ED110AD0ED0B0A30EE56
:104B8000600ADFED2C0AB4EEE00AF1EE10FA06D26C
:104B9000B0F84800401E00B22549A1F8480024485A
:104BA000D0ED0B0AB0F848004FF4B47110FB01F0DF
:104BB00000EE100AB8EEC00A30EE800A1C4880ED04
:104BC000100A90ED0B0A80ED110A1B48B0F9120093
:104BD00000EE100AB8EEC00A184880ED000A164828
:104BE000B0F9100000EE100AB8EEC00A134880EDCC
:104BF000010A0F4890ED0D0A104880ED030A0C4899
:104C000090ED100A0D4880ED040ABDEC0C8B10BD30
:104C1000A0050020A40500209C0500209805002088
:104C20006666666666A64C4000000000008066402E
:104C300078670020000096C354670020C4670020F6
:104C400010B50E2253493B2005F088FD51484078AD
:104C50005049097840EA012000B24F4908804D4888
:104C6000C0784C49897840EA012000B24A4948801E
:104C7000484840794749097940EA012000B246494D
:104C800088804448C0794349897940EA012000B2CC
:104C9000414988813F48407A3E49097A40EA0120EB
:104CA0003D49498B401A00B23B49C8813948C07A16
:104CB0003849897A40EA01203749898B401A00B285
:104CC000354908823348407B3249097B40EA01205C
:104CD0003149C98B401A00B22F4948822F4805F04C
:104CE00019FB2D482D490A68C0F8062089884181A2
:104CF0002B4829490A6802604A68426089688160D5
:104D00002548B0F90C0000EE100AB8EEC00ADFED3D
:104D1000250A80EE201AB3EE050A31EE000A20487B
:104D200080ED030A1C48B0F90E0000EE100AF8EE00
:104D3000C00A9FED1D1A80EE810ADFED1C0A80EE8D
:104D4000201A174880ED041A1348B0F9100000EE3D
:104D5000100AF8EEC00A9FED141A80EE810ADFED0A
:104D6000130A80EE201A0E4880ED051A0A48B0F9A1
:104D7000120000EE100AF8EEC00A9FED0B1A80EE4A
:104D8000810ADFED0A0A80EE201A054880ED061A36
:104D900010BD000044670020546700205C0600201E
:104DA000786700205CEFA6436F128341333365427E
:104DB00000BFFEE7B0EE401A80ED001AC0ED010A18
:104DC00090ED000AD0ED011A30EE610A80ED020A82
:104DD00090ED020AD0ED031A30EE610A80ED040A6C
:104DE00090ED050AD0ED021A20EE210A80ED080AA6
:104DF00090ED090AD0ED061A90ED022A01EE820A22
:104E000080ED090A90ED020AD0ED031A30EE610A36
:104E1000D0ED071A20EE210A80ED0A0A90ED090A6A
:104E2000D0ED0E1AF1EE611AB4EEE10AF1EE10FACD
:104E300006D290ED0E0AB1EE400A80ED090A0CE0B0
:104E400090ED090AD0ED0E1AB4EEE10AF1EE10FA77
:104E500003DD90ED0E0A80ED090A90ED080AD0ED11
:104E6000091A30EE210AD0ED0A1A30EE210A80ED3F
:104E70000B0A90ED0B0AD0ED0C1AF1EE611AB4EEAC
:104E8000E10AF1EE10FA06D290ED0C0AB1EE400AFA
:104E900080ED0B0A0CE090ED0B0AD0ED0C1AB4EE8D
:104EA000E10AF1EE10FA03DD90ED0C0A80ED0B0A39
:104EB00090ED020A80ED030A90ED0B0A70470000A6
:104EC000F0B50546059C002078E093ED050A00EB5F
:104ED00040063C4F07EB8606D6ED000A20EE200A7E
:104EE000D3ED060A00EB400607EB860696ED011AA5
:104EF00000EE810AD3ED070A00EB400607EB8606B9
:104F000096ED021A00EE810A05EB800686ED000A96
:104F100093ED010A00EB40062B4F07EB8606D6ED1A
:104F2000000A20EE200AD3ED020A00EB400607EB50
:104F3000860696ED011A00EE810AD3ED030A00EB16
:104F4000400607EB860696ED021A00EE810A1F4E18
:104F500006EB8006D6ED000A30EE200A01EB800653
:104F600086ED000A94ED010A00EB4006184F07EBAE
:104F70008606D6ED000A20EE200AD4ED020A00EBE8
:104F8000400607EB860696ED011A00EE810AD4ED85
:104F9000030A00EB400607EB860696ED021A00EEC8
:104FA000810A0C4E06EB8006D6ED000A30EE200A90
:104FB00002EB800686ED000A461CF0B2032884DB73
:104FC000F0BD0000E0050020040600202C67002052
:104FD000280600203867002010B5064890F9000028
:104FE00000EE100AB8EEC00A00F0B8F8FFF79EF81D
:104FF00010BD00006C060020534AB2F9002000EEFC
:10500000102AB8EEC00ADFED510A20EE200A80ED2A
:10501000010A4D4AB2F9022000EE102AB8EEC00A89
:10502000DFED4A0A20EE200A80ED020A464AB2F974
:10503000042000EE102AB8EEC00ADFED440A20EE8C
:10504000200A80ED030A404AB2F90C2000EE102A33
:10505000B8EEC00ADFED3E0A80EE201AB3EE050A74
:1050600031EE000A80ED040A374AB2F90E2000EE54
:10507000102AB8EEC00ADFED370A20EE200A80EDD4
:10508000050A314AB2F9102000EE102AB8EEC00A23
:10509000DFED300A20EE200A80ED060A2A4AB2F936
:1050A000122000EE102AB8EEC00ADFED2A0A20EE28
:1050B000200A80ED070A244AB2F90E2000EE102AD9
:1050C000B8EEC00A80ED080A1F4AB2F9102000EEBF
:1050D000102AB8EEC00A80ED090A1B4AB2F9122064
:1050E00000EE102AB8EEC00A80ED0A0A164A92F8BD
:1050F000202080F82C20144AB2F9062000EE102A55
:10510000B8EEC00ADFED140A20EE200A81ED010A94
:105110000D4AB2F9082000EE102AB8EEC00ADFED01
:105120000E0A20EE200A81ED020A074AB2F90A208F
:1051300000EE102AB8EEC00ADFED070A20EE200AC2
:1051400081ED030A7047000054670020CDCC1C3B62
:105150005CEFA64358A08B3A9A99993E10B52DED75
:10516000028BB0EE408A2648007860B304F0D8FE87
:10517000F0EE408A2348F0EE680AB0EE480AC16BB0
:105180008847204890ED0B0AB5EEC00AF1EE10FA00
:1051900003D29FED1D0A80ED0B0A04F0C1FEB4EEB0
:1051A000C80AF1EE10FA02DB01201849087515480B
:1051B00090ED0B0ABCEEC00A10EE100A84B214483F
:1051C0000068846318E004F0ABFEDFED120A68EEBD
:1051D000200AB4EEE00AF1EE10FA05D241F287306F
:1051E0000B490968886307E09FED0B0A054880EDCD
:1051F000090A012002490870BDEC028B10BD0000B5
:10520000B80600207006002000000000C4670020DF
:10521000B80A0020CDCC4C3F00401C459FED0E1A33
:1052200080ED001A9FED0C1A80ED051A80ED090A39
:10523000C0ED0A0AB7EE001A80ED071A9FED061AB4
:1052400080ED081AB7EE001A80ED0B1A90ED001AE7
:1052500080ED011A7047000000000000F0EE400AE7
:1052600090ED070A90ED001A20EE010A80ED010A88
:1052700090ED090A90ED071AD0ED051A01EE210A0A
:1052800080ED030A90ED030A90ED0A1A30EE010A50
:1052900090ED031AC1EE001AC0ED061A90ED010A56
:1052A00090ED061AD0ED011A70EEE11A01EE210A16
:1052B00080ED020A90ED060AB7EE001A31EE400AC0
:1052C00090ED031A20EE010A80ED040A90ED040A25
:1052D00080ED050A90ED020A80ED000A90ED020AC9
:1052E000704700001FB500200090019002900390CD
:1052F0001548164908604FF4803048600021134873
:1053000081600161017680F82010C16210498162DC
:105310000021C1600121C161002180F8301001210C
:105320004161FBF72BFF08B1FBF771FD06200090F0
:1053300001200190029069460448FBF74DFE08B138
:10534000FBF765FD1FBD0000002001407009002033
:105350000100000F10B50F480F4908600720486092
:1053600000210D488160C1604FF400310161C90026
:10537000416100210176012141768176C1760021CB
:10538000017701214177FCF7A4FA08B1FBF73FFD53
:1053900010BD000000640040B809002010B50F489F
:1053A0000F4908600720486000210D488160C160F6
:1053B0004FF400310161C9004161002101760121F2
:1053C00041768176C1760021017701214177FCF792
:1053D00080FA08B1FBF71BFD10BD0000006800401B
:1053E000E009002008B500BF002000901E480068BA
:1053F00040F480001C4908600846006800F4800002
:10540000009000BF00BF00BF002000900846006869
:1054100040F4001008600846006800F40010009096
:1054200000BF00BF002205210C20FDF7E7F80C208B
:10543000FDF7D4F8002205210E20FDF7DFF80E203D
:10544000FDF7CCF8002211463A20FDF7D7F83A20B4
:10545000FDF7C4F8002205214520FDF7CFF84520CF
:10546000FDF7BCF808BD00003038024000B587B039
:105470001C2206496846FBF764F80021684605F0DF
:10548000B4FA0349086007B000BD000028E1000835
:105490000000002000B587B0142102A8FBF783F8B4
:1054A00000BF002001904748006840F002004549D5
:1054B00008600846006800F00200019000BF00BFCD
:1054C00000BF002001900846006840F040000860DE
:1054D0000846006800F04000019000BF00BF00BF18
:1054E000002001900846006840F00100086008466E
:1054F000006800F00100019000BF00BF00BF002065
:1055000001900846006840F00800086008460068FE
:1055100000F00800019000BF00BF00BF0020019014
:105520000846006840F0800008600846006800F007
:105530008000019000BF00BF00BF0020019008461E
:10554000006840F0200008600846006800F0200075
:10555000019000BF00BF00224FF4C0611A48FCF761
:105560009CFF01224FF4FF711848FCF796FF0122BF
:1055700040211748FCF791FF4FF4C06002900120D2
:10558000039000200490059002A90F48FCF76EFEDE
:105590004FF4FF70029001200390049000200590CA
:1055A00002A90A48FCF762FE402002900120039005
:1055B00000200490059002A90548FCF757FE07B0AB
:1055C00000BD0000303802400004024000180240D4
:1055D0000014024010B50E480E4908604FF4827066
:1055E000486000210B488160C160016141614FF456
:1055F000007181610021C1610162416281620A2101
:10560000C162FDF78DFC08B1FBF701FC10BD000085
:1056100000300140080A002010B50E480E4908600D
:105620004FF48270486000210B488160C1600161C5
:1056300041614FF4007181613021C161002101623B
:10564000416281620A21C162FDF76AFC08B1FBF781
:10565000DEFB10BD00500140600A002000B58BB099
:1056600000200790089009900A901C216846FAF7DC
:105670009AFF1C481C4908605320486000211A48C2
:10568000816040F6C311C160002101618161FDF7B5
:105690006BFF08B1FBF7BBFB4FF48050079007A9E5
:1056A0001148FDF7AAFF08B1FBF7B1FB0E48FEF762
:1056B000D0F908B1FBF7ABFB602000904FF47A7093
:1056C0000190002002900490002269460648FEF7EF
:1056D0003CF908B1FBF79BFB0348FEF7DFF80BB082
:1056E00000BD000000180040F80A002000B589B095
:1056F0000020079008901C216846FAF754FF1848CC
:10570000184908600020486000211648816041F275
:105710008731C160002101618161FEF79AF908B10A
:10572000FBF775FB00200790089007A90D48FDF7CF
:10573000C1FE08B1FBF76BFB6020009000200190D8
:1057400002900490042269460648FEF7FEF808B16C
:10575000FBF75DFB0348FEF7A1F809B000BD0000B0
:1057600000040040B80A002010B50C480C4908603D
:105770000C4848604FF48051094881600021C160A5
:105780004FF4806101610C21416100218161C1619F
:10579000FEF7AEFA08B1FBF73AFB10BD001001406E
:1057A000380B0020A086010010B50B480B4908609B
:1057B0004FF4E1304860002108488160C160016118
:1057C0000C21416100218161C161FEF791FA08B1AC
:1057D000FBF71DFB10BD000000480040780B0020C7
:1057E00010B50B480B4908604FF4E13048600021C8
:1057F00008488160C16001610C2141610021816123
:10580000C161FEF775FA08B1FBF701FB10BD00009E
:1058100000140140B80B002000BFFEE770470000F5
:1058200008B500BF002000900F48006840F080508D
:105830000D4908600846006800F08050009000BFE5
:1058400000BFE02009490860094848600846FCF7A5
:1058500049FFFCF7A1FF0120FCF7C0FE0022114622
:105860000120FCF7CBFE08BD4038024014070020A1
:105870000300010010B5FCF79DFF10BDFDEEC00A4E
:1058800010EE900A40B205490870084690F90000F1
:10589000282801DD28200870704700006C060020D1
:1058A000B0EE402A9FED180AF0EE401A32EE600A80
:1058B000F0EE401AF5EEC01AF1EE10FA0EDDF4EE3D
:1058C000C11AF1EE10FA04DD30EE810AF0EE400A62
:1058D00016E030EEA10AF0EE400A11E0B1EE410A06
:1058E000F4EEC01AF1EE10FA06D2B1EE410A30EE33
:1058F000800AF0EE400A03E030EEA10AF0EE400A22
:10590000B0EE600A704700000000000038B50546A0
:105910000C460C48006898B1FF2C11DC0A48456021
:1059200020B20949488009480068002303220090FA
:105930000448006806F098FA0B21054803F0BAFB0A
:10594000002038BDA8000020B4000020B0000020D6
:105950004C4D00207CB504460D461646164800689E
:105960001821B0FBF1F01549B0FBF1F04FF47A715A
:10597000484301906068B0F5827F0DD12B4600222C
:1059800080212046009600F01BF898B1606D40F031
:105990002000606503207CBD00BF019800B908E0CD
:1059A0000198401E019020688068C0F3C010002854
:1059B000F3D100BF0020EEE71400002040420F00AA
:1059C0002DE9F04104460E4617461D46DDF81880C5
:1059D0003EE0681CD8B3FCF767FDA0EB0800A842C6
:1059E00000D2A5BB2068406820F0E0002168486034
:1059F0006068B0F5827F0DD1A068B0F5004F03D08C
:105A0000A068B0F5806F05D12068006820F04000E4
:105A100021680860A06AB0F5005F0DD100BF206862
:105A2000006820F40050216808602068006840F495
:105A300000502168086000BF012084F8510000BFB9
:105A4000002084F8500000BF0320BDE8F081FFE78C
:105A5000206880683040B04201D1012000E0002081
:105A6000B842B6D10020F0E710B500BF502080F357
:105A70001188BFF34F8FBFF36F8F00BF06F0BEFAE0
:105A800018B14FF080500449086000BF002080F337
:105A9000118800BF10BD000004ED00E000B593B018
:105AA000302107A8FAF77FFD142102A8FAF77BFD41
:105AB00000BF002001902448006840F08050224937
:105AC00008600846006800F08050019000BF00BFE9
:105AD00000BF002001901D48006840F440401B4971
